:020000040800F2
:100000000000032061020008AD020008AD020008F4
:10001000AD020008AD020008AD02000800000000BB
:10002000000000000000000000000000AD02000819
:10003000AD02000800000000AD020008AD0200089B
:10004000AD020008AD020008AD020008AD020008D4
:10005000AD020008AD020008AD020008AD020008C4
:10006000AD020008AD020008AD020008AD020008B4
:10007000AD020008AD020008AD020008AD020008A4
:10008000AD020008AD020008AD020008AD02000894
:10009000AD020008AD020008AD020008AD02000884
:1000A000AD020008AD020008AD020008AD02000874
:1000B000AD020008AD020008AD020008AD02000864
:1000C000AD020008AD020008AD020008AD02000854
:1000D000AD020008AD020008AD020008AD02000844
:1000E000AD020008AD020008AD020008AD02000834
:1000F000AD020008AD020008AD020008AD02000824
:10010000AD020008AD020008AD020008AD02000813
:10011000AD020008AD020008AD020008AD02000803
:10012000AD020008AD020008AD020008AD020008F3
:10013000AD020008AD020008AD020008AD020008E3
:10014000AD020008AD020008AD020008AD020008D3
:10015000AD020008AD020008AD020008AD020008C3
:10016000AD020008AD020008AD020008AD020008B3
:10017000AD020008AD020008AD020008000000005A
:10018000AD020008AD020008AD020008AD02000893
:10019000AD020008AD020008AD020008AD02000883
:0C01A000AD020008AD020008AD0200082E
:1001AC000348044B834202D0034B03B118477047FA
:1001BC000000002000000020000000000548064B55
:1001CC001B1AD90F01EBA301491002D0034B03B149
:1001DC0018477047000000200000002000000000BD
:1001EC0010B5064C237843B9FFF7DAFF044B13B173
:1001FC000448AFF300800123237010BD00000020E1
:10020C0000000000F802000808B5054B1BB10549B9
:10021C000548AFF30080BDE80840FFF7CFBF00BF33
:10022C000000000004000020F8020008064A136BCE
:10023C0043F002031363054B1968054A0A431A601D
:10024C0044F2C7029A61FEE7003802400004024003
:10025C0015500010DFF830D00C480D490D4A002322
:10026C0002E0D458C4500433C4188C42F9D30A4A5F
:10027C000A4C002301E013600432A242FBD300F0CD
:10028C0011F8FFF7D3FF7047000003200000002097
:10029C000000002018030008000000201C000020B3
:1002AC00FEE7000070B50D4D0D4C641BA41000262C
:1002BC00A64209D10B4D0C4C00F018F8641BA4108D
:1002CC000026A64205D170BD55F8043B984701366F
:1002DC00EEE755F8043B98470136F2E710030008A7
:1002EC00100300081003000814030008F8B500BF41
:1002FC00F8BC08BC9E467047F8B500BFF8BC08BCFB
:04030C009E46704752
:0403100015020008CA
:04031400ED010008EF
:04000005080002618C
:00000001FF
